:100000000C942A000C943C000C943C000C943C0092
:100010000C943C000C943C000C943C000C943C0070
:100020000C943C000C943C000C9453000C943C0049
:100030000C943C000C943C000C943C000C943C0050
:100040000C943C000C943C000C943C000C943C0040
:100050000C943C0011241FBECFE5D8E0DEBFCDBF1D
:1000600010E0A0E6B0E001C01D92A136B107E1F7B3
:100070000E944A000C9480000C9400008FB78068A6
:100080008FBF8AE883BF12BE82E38CBF89B78260CC
:1000900089BF089584B3876084BB85B3876085BBBF
:1000A0000E943E00FFCF1F920F920FB60F921124B5
:1000B0002F933F938F939F93809160008F5F8093E6
:1000C000600095B321E0922795BB282F30E080FD9A
:1000D00004C085B392E0892785BB23703070232B41
:1000E00031F485B394E0892785BB109260009F911D
:1000F0008F913F912F910F900FBE0F901F901895E9
:04010000F894FFCFA1
:00000001FF
