:100000000C942A000C943F000C943F000C943F0089
:100010000C943F000C943F000C943F000C943F0064
:100020000C943F000C943F000C943F000C943F0054
:100030000C943F000C943F000C943F000C943F0044
:100040000C943F000C943F000C943F000C943F0034
:100050000C943F0011241FBECFE5D8E0DEBFCDBF1A
:1000600010E0A0E6B0E0ECE0F4E002C005900D92F4
:10007000A836B107D9F70E9441000C9404020C94F1
:1000800000000E94E80180E690E00E94B201FFCFEC
:10009000683008F070C0843008F06DC0813009F11C
:1000A000813030F08230B1F1833009F064C04BC050
:1000B000413059F42AB381E090E002C0880F991FC3
:1000C0006A95E2F7282B2ABB08952AB381E090E0D5
:1000D00002C0880F991F6A95E2F7809582238ABB38
:1000E0000895413059F427B381E090E002C0880FB1
:1000F000991F6A95E2F7282B27BB089527B381E063
:1001000090E002C0880F991F6A95E2F780958223DC
:1001100087BB0895413059F424B381E090E002C0D8
:10012000880F991F6A95E2F7282B24BB089524B302
:1001300081E090E002C0880F991F6A95E2F78095F0
:10014000822384BB0895413059F421B381E090E0CB
:1001500002C0880F991F6A95E2F7282B21BB0895EA
:1001600021B381E090E002C0880F991F6A95E2F701
:100170008095822381BB0895683008F070C0843078
:1001800008F06DC0813009F1813030F08230B1F17A
:10019000833009F064C04BC0413059F42BB381E087
:1001A00090E002C0880F991F6A95E2F7282B2BBBBD
:1001B00008952BB381E090E002C0880F991F6A95E3
:1001C000E2F7809582238BBB0895413059F428B320
:1001D00081E090E002C0880F991F6A95E2F7282B12
:1001E00028BB089528B381E090E002C0880F991FD2
:1001F0006A95E2F78095822388BB0895413059F4CF
:1002000025B381E090E002C0880F991F6A95E2F75C
:10021000282B25BB089525B381E090E002C0880F0C
:10022000991F6A95E2F78095822385BB0895413036
:1002300059F422B381E090E002C0880F991F6A95BB
:10024000E2F7282B22BB089522B381E090E002C0A0
:10025000880F991F6A95E2F78095822382BB0895E3
:100260006830D0F48430C0F4813049F0813028F017
:10027000823039F0833081F406C089B305C086B37B
:1002800003C083B301C080B390E002C09595879509
:100290006A95E2F78170089580E00895843080F4D3
:1002A000813049F0813028F0823039F0833041F4D8
:1002B00006C06ABB089567BB089564BB089561BB1F
:1002C0000895843080F4813049F0813028F0823004
:1002D00039F0833041F406C06BBB089568BB0895C4
:1002E00065BB089562BB0895843088F4813049F07D
:1002F000813028F0823039F0833049F406C089B368
:10030000089586B3089583B3089580B3089580E077
:100310000895FF920F931F93F82E83E064E041E06D
:100320000E94BC000AEF10E0C8010197F1F783E0DA
:1003300065E041E00E94BC00C8010197F1F782E04E
:100340006F2D0E946101C8010197F1F783E065E01C
:1003500040E00E94BC00C8010197F1F71F910F9186
:10036000FF900895CF93DF93EC0103C00E948901B1
:10037000219688818823D1F7DF91CF910895FF924C
:100380000F931F93F82E83E064E040E00E94BC00CE
:100390000AEF10E0C8010197F1F783E065E041E062
:1003A0000E94BC00C8010197F1F782E06F2D0E9406
:1003B0006101C8010197F1F783E065E040E00E9428
:1003C000BC00C8010197F1F71F910F91FF900895AC
:1003D00082E06FEF0E944E0183E064E041E00E9402
:1003E000480083E065E041E00E94480088E893E12E
:1003F0000197F1F788E30E94BF018CE00E94BF01E2
:0C04000081E00E94BF010895F894FFCF36
:08040C004D414B45454E000037
:00000001FF
