:100000000C942A000C943C000C9478000C943C0056
:100010000C943C000C943C000C943C000C943C0070
:100020000C943C000C943C000C943C000C943C0060
:100030000C943C000C943C000C943C000C943C0050
:100040000C943C000C943C000C943C000C943C0040
:100050000C943C0011241FBECFE5D8E0DEBFCDBF1D
:1000600010E0A0E6B0E001C01D92A236B107E1F7B2
:100070000E944C000C94B0000C9400008B988FB739
:1000800080688FBF8BB780688BBF85B7886085BF5E
:1000900085B78B7F85BF089584B3876084BB85B3A4
:1000A000887F85BB0E943E0020E931E085B3887FD0
:1000B000816085BB88E893E1F9013197F1F70197F9
:1000C000D9F785B3887F826085BB88E893E1F90121
:1000D0003197F1F70197D9F785B3887F846085BBA5
:1000E00088E893E1F9013197F1F70197D9F7DECF6D
:1000F0001F920F920FB60F9211242F933F934F939D
:100100005F936F938F939F93EF93FF9385B3887F54
:1001100085BB20E030E067E040E951E00CC085B3EA
:10012000862785BB80E197E2FA013197F1F70197C5
:10013000D9F72F5F3F4F2A3031058CF330936100A0
:1001400020936000FF91EF919F918F916F915F914C
:100150004F913F912F910F900FBE0F901F901895C8
:04016000F894FFCF41
:00000001FF
