:100000000C942A000C9434000C9434000C943400AA
:100010000C9434000C9434000C9434000C94340090
:100020000C9434000C9434000C9434000C94340080
:100030000C9434000C9434000C9434000C94340070
:100040000C9434000C9434000C9434000C94340060
:100050000C94340011241FBECFE5D8E0DEBFCDBF25
:100060000E943F000C9458000C940000BB9A9AE642
:1000700093BF12BE8CBF89B78C7F89BF08951F9331
:10008000CF93DF9310E0C4EDD0E307C0812F0E942F
:100090003600CE010197F1F71F5F1F3FB9F7812F9F
:1000A0000E943600CE010197F1F71150C1F7F5CF4C
:0400B000F894FFCFF2
:00000001FF
