:100000000C942A000C9434000C9434000C943400AA
:100010000C9434000C9434000C9434000C94340090
:100020000C9434000C9434000C9434000C94340080
:100030000C9434000C9434000C9434000C94340070
:100040000C9434000C9434000C9434000C94340060
:100050000C94340011241FBECFE5D8E0DEBFCDBF25
:100060000E9440000C9443000C940000BB9A8AE666
:1000700083BF12BE80E48CBF89B78C7F89BF08958F
:0A0080000E943600FFCFF894FFCF76
:00000001FF
