:100000000C942A000C9434000C9434000C943400AA
:100010000C9434000C9434000C9434000C94340090
:100020000C9434000C9434000C9434000C94340080
:100030000C9434000C9434000C9434000C94340070
:100040000C9434000C9434000C9434000C94340060
:100050000C94340011241FBECFE5D8E0DEBFCDBF25
:100060000E9436000C945C000C9400008C9884B3C1
:100070008F6084BB85B3807F85BB21E081E04CE449
:100080005DE101C081E0849B14C0882391F0CA0126
:100090000197F1F7849BF6CF85B3922F9F70807FF5
:1000A000982B95BB293011F420E001C02F5F80E030
:0C00B000EACF849BE7CFE7CFF894FFCFA6
:00000001FF
