:100000000C942A000C9434000C9434000C943400AA
:100010000C9434000C9434000C9434000C94340090
:100020000C9434000C9434000C9434000C94340080
:100030000C9434000C9434000C9434000C94340070
:100040000C9434000C9434000C9434000C94340060
:100050000C94340011241FBECFE5D8E0DEBFCDBF25
:100060000E9436000C9465000C9400008AB3877ED1
:100070008ABB8FEF81BB4CE45DE175E529E130E09F
:100080006AEACB9B0FC0CA010197F1F7CB9BF9CF6E
:1000900082B372BB88E893E1F9013197F1F70197D8
:1000A000D9F710C0CC9B0EC0CA010197F1F7CC9BC9
:1000B000E8CF82B362BB88E893E1F9013197F1F7A9
:0E00C0000197D9F782B312BADCCFF894FFCFC4
:00000001FF
