:100000000C942A000C9434000C9434000C943400AA
:100010000C9434000C9434000C9434000C94340090
:100020000C9434000C9434000C9434000C94340080
:100030000C9434000C9434000C9434000C94340070
:100040000C9434000C9434000C9434000C94340060
:100050000C94340011241FBECFE5D8E0DEBFCDBF25
:100060000E9436000C9451000C940000B898C09A7D
:10007000A09AA89A81E041E02CE43DE101C081E032
:10008000B0990CC0882351F0C9010197F1F7B099DC
:10009000F6CF85B3842785BB80E0F2CFB099EFCF50
:0600A000EFCFF894FFCF42
:00000001FF
