:100000000C942A000C9434000C9434000C943400AA
:100010000C9434000C9434000C9434000C94340090
:100020000C9434000C9434000C9434000C94340080
:100030000C9434000C9434000C9434000C94340070
:100040000C9434000C9434000C9434000C94340060
:100050000C94340011241FBECFE5D8E0DEBFCDBF25
:100060000E9436000C9494040C940000DF93CF930C
:10007000CDB7DEB783E062E00E945B00A4E3B0E0AE
:10008000E4E3F0E0808182608C9383E062E00E9490
:100090002303882341F4A5E3B0E0E5E3F0E08081A9
:1000A00082608C93F2CFA5E3B0E0E5E3F0E08081DD
:1000B0008D7F8C93EACFDF93CF9300D0CDB7DEB79F
:1000C00089836A8389816A8140E00E94AA000F9037
:1000D0000F90CF91DF910895DF93CF93CDB7DEB727
:1000E00027970FB6F894DEBF0FBECDBF89836A8312
:1000F0004B838B81282F30E03E832D838D819E8121
:10010000009781F02D813E8121303105B1F4898144
:100110006A810E942303882311F41C820FC031E0FE
:100120003C830CC089816A810E942303813019F4C9
:1001300081E08C8303C01C8201C002C09C819F832C
:100140008F8127960FB6F894DEBF0FBECDBFCF913B
:10015000DF910895DF93CF9300D000D00F92CDB7F9
:10016000DEB789836A834B838981843008F0E4C0D9
:100170008A81883008F0E0C08981282F30E03D83F3
:100180002C838C819D818130910509F447C02C819D
:100190003D81223031052CF48C819D81009771F0D6
:1001A000CBC02C813D812230310509F467C08C81A0
:1001B0009D818330910509F491C0BEC08B81882355
:1001C000A9F4AAE3B0E0EAE3F0E08081482F8A8155
:1001D000282F30E081E090E0022E02C0880F991FA6
:1001E0000A94E2F7809584238C93A6C08B8181309A
:1001F00009F0A2C0AAE3B0E0EAE3F0E08081482F72
:100200008A81282F30E081E090E0022E02C0880F22
:10021000991F0A94E2F7842B8C938EC08B818823DC
:10022000A9F4A7E3B0E0E7E3F0E08081482F8A81FA
:10023000282F30E081E090E0022E02C0880F991F45
:100240000A94E2F7809584238C9376C08B81813069
:1002500009F072C0A7E3B0E0E7E3F0E08081482F47
:100260008A81282F30E081E090E0022E02C0880FC2
:10027000991F0A94E2F7842B8C935EC08B818823AC
:10028000A9F4A4E3B0E0E4E3F0E08081482F8A81A0
:10029000282F30E081E090E0022E02C0880F991FE5
:1002A0000A94E2F7809584238C9346C08B81813039
:1002B00009F042C0A4E3B0E0E4E3F0E08081482F1D
:1002C0008A81282F30E081E090E0022E02C0880F62
:1002D000991F0A94E2F7842B8C932EC08B8188237C
:1002E000A9F4A1E3B0E0E1E3F0E08081482F8A8146
:1002F000282F30E081E090E0022E02C0880F991F85
:100300000A94E2F7809584238C9316C08B81813008
:1003100099F4A1E3B0E0E1E3F0E08081482F8A8125
:10032000282F30E081E090E0022E02C0880F991F54
:100330000A94E2F7842B8C930F900F900F900F90FC
:100340000F90CF91DF910895DF93CF9300D000D02D
:100350000F92CDB7DEB789836A834B83898184305E
:1003600008F0E4C08A81883008F0E0C08981282F35
:1003700030E03D832C838C819D818130910509F48F
:1003800047C02C813D81223031052CF48C819D8128
:10039000009771F0CBC02C813D812230310509F4EA
:1003A00067C08C819D818330910509F491C0BEC0E6
:1003B0008B818823A9F4ABE3B0E0EBE3F0E080812C
:1003C000482F8A81282F30E081E090E0022E02C081
:1003D000880F991F0A94E2F7809584238C93A6C016
:1003E0008B81813009F0A2C0ABE3B0E0EBE3F0E039
:1003F0008081482F8A81282F30E081E090E0022E12
:1004000002C0880F991F0A94E2F7842B8C938EC048
:100410008B818823A9F4A8E3B0E0E8E3F0E08081D1
:10042000482F8A81282F30E081E090E0022E02C020
:10043000880F991F0A94E2F7809584238C9376C0E5
:100440008B81813009F072C0A8E3B0E0E8E3F0E00E
:100450008081482F8A81282F30E081E090E0022EB1
:1004600002C0880F991F0A94E2F7842B8C935EC018
:100470008B818823A9F4A5E3B0E0E5E3F0E0808177
:10048000482F8A81282F30E081E090E0022E02C0C0
:10049000880F991F0A94E2F7809584238C9346C0B5
:1004A0008B81813009F042C0A5E3B0E0E5E3F0E0E4
:1004B0008081482F8A81282F30E081E090E0022E51
:1004C00002C0880F991F0A94E2F7842B8C932EC0E8
:1004D0008B818823A9F4A2E3B0E0E2E3F0E080811D
:1004E000482F8A81282F30E081E090E0022E02C060
:1004F000880F991F0A94E2F7809584238C9316C085
:100500008B81813099F4A2E3B0E0E2E3F0E08081F6
:10051000482F8A81282F30E081E090E0022E02C02F
:10052000880F991F0A94E2F7842B8C930F900F90F9
:100530000F900F900F90CF91DF910895DF93CF939D
:1005400000D000D0CDB7DEB789836A83898184303B
:1005500008F072C08A81883008F06EC08981282F27
:1005600030E03C832B838B819C818130910549F164
:100570002B813C81223031052CF48B819C810097AA
:1005800061F05AC02B813C812230310571F18B81A1
:100590009C8183309105E9F14FC0ABE3B0E0EBE320
:1005A000F0E08081482F8A81282F30E081E090E0C0
:1005B000022E02C0880F991F0A94E2F784278C93B9
:1005C0003BC0A8E3B0E0E8E3F0E08081482F8A81F7
:1005D000282F30E081E090E0022E02C0880F991FA2
:1005E0000A94E2F784278C9327C0A5E3B0E0E5E303
:1005F000F0E08081482F8A81282F30E081E090E070
:10060000022E02C0880F991F0A94E2F784278C9368
:1006100013C0A2E3B0E0E2E3F0E08081482F8A81DA
:10062000282F30E081E090E0022E02C0880F991F51
:100630000A94E2F784278C930F900F900F900F90FD
:10064000CF91DF910895DF93CF9300D000D000D0F9
:10065000CDB7DEB78A836B8319828A81843018F420
:100660008B81883018F029812E8382C08A81482F9F
:1006700050E05D834C838C819D818130910579F1BF
:100680002C813D812230310534F44C815D8141154E
:10069000510569F06BC08C819D8182309105B9F163
:1006A0002C813D812330310509F449C05FC0E9E365
:1006B000F0E08081282F30E08B81882F90E0A90125
:1006C00002C0559547958A95E2F7CA0181709070EE
:1006D000882319F081E0898349C0198247C0E6E385
:1006E000F0E08081282F30E08B81882F90E0A901F5
:1006F00002C0559547958A95E2F7CA0181709070BE
:10070000882319F081E0898331C019822FC0E3E387
:10071000F0E08081282F30E08B81882F90E0A901C4
:1007200002C0559547958A95E2F7CA01817090708D
:10073000882319F081E0898319C0198217C0E0E38A
:10074000F0E08081282F30E08B81882F90E0A90194
:1007500002C0559547958A95E2F7CA01817090705D
:10076000882319F081E0898301C0198259815E8351
:100770008E8126960FB6F894DEBF0FBECDBFCF9107
:10078000DF910895DF93CF9300D000D0CDB7DEB7CF
:1007900089836A8389818430C0F58A81882319F02E
:1007A0008A818F3F91F58981282F30E03C832B830C
:1007B0008B819C8181309105D1F02B813C8122304D
:1007C00031052CF48B819C81009761F01EC02B8138
:1007D0003C812230310581F08B819C8183309105F1
:1007E00081F013C0EAE3F0E08A8180830EC0E7E382
:1007F000F0E08A81808309C0E4E3F0E08A818083AD
:1008000004C0E1E3F0E08A8180830F900F900F90A5
:100810000F90CF91DF910895DF93CF9300D000D058
:10082000CDB7DEB789836A838981843090F5898169
:10083000282F30E03C832B838B819C818130910574
:10084000D1F02B813C81223031052CF48B819C81AD
:10085000009761F01EC02B813C812230310581F070
:100860008B819C818330910581F013C0EBE3F0E034
:100870008A8180830EC0E8E3F0E08A81808309C02A
:10088000E5E3F0E08A81808304C0E2E3F0E08A815E
:1008900080830F900F900F900F90CF91DF9108956C
:1008A000DF93CF9300D000D0CDB7DEB78A838A81A3
:1008B000843090F58A81282F30E03C832B838B8114
:1008C0009C8181309105D1F02B813C812230310512
:1008D0002CF48B819C81009761F01EC02B813C81A0
:1008E0002230310581F08B819C818330910581F02C
:1008F00013C0E9E3F0E0808189830EC0E6E3F0E015
:100900008081898309C0E3E3F0E08081898304C0AA
:10091000E0E3F0E08081898389810F900F900F9050
:0C0920000F90CF91DF910895F894FFCF65
:00000001FF
