:100000000C942A000C9434000C9434000C943400AA
:100010000C9434000C9434000C9434000C94340090
:100020000C9434000C9434000C9447000C9434006D
:100030000C9434000C9434000C9434000C94340070
:100040000C9434000C9434000C9434000C94340060
:100050000C94340011241FBECFE5D8E0DEBFCDBF25
:100060000E9442000C9459000C9400008FB78068E5
:100070008FBF89E883BF12BE8AEF8CBF89B78260C9
:1000800089BF0895BB9AC39A0E943600FFCF1F9282
:100090000F920FB60F9211248F939F9388B398E01D
:1000A000892788BB9F918F910F900FBE0F901F9053
:0600B0001895F894FFCF43
:00000001FF
