:100000000C942A000C943C000C943C000C943C0092
:100010000C943C000C943C000C943C000C943C0070
:100020000C943C000C943C000C943C000C94480054
:100030000C943C000C943C000C943C000C943C0050
:100040000C943C000C943C000C943C000C943C0040
:100050000C943C0011241FBECFE5D8E0DEBFCDBF1D
:1000600010E0A0E6B0E001C01D92A236B107E1F7B2
:100070000E9475000C946B030C9400008FB780688D
:100080008FBF84E883BF12BE89B7816089BF08959E
:100090001F920F920FB60F9211242F933F934F93FD
:1000A0005F936F937F938F939F93AF93BF93EF93E0
:1000B000FF93809160008F5F80936000843F21F404
:1000C000109260000E943303FF91EF91BF91AF91B6
:1000D0009F918F917F916F915F914F913F912F9160
:1000E0000F900FBE0F901F9018950E943E000E9427
:1000F0003B03FFCF843008F07BC0683008F078C045
:10010000813029F1813038F0823009F43CC08330ED
:1001100009F06EC053C0442361F42AB381E090E03B
:1001200002C0880F991F6A95E2F7809582238ABBE7
:100130000895413009F05CC02AB381E090E002C02C
:10014000880F991F6A95E2F7282B2ABB089544234C
:1001500061F427B381E090E002C0880F991F6A958F
:10016000E2F78095822387BB0895413009F040C0B3
:1001700027B381E090E002C0880F991F6A95E2F7EB
:10018000282B27BB0895442361F424B381E090E039
:1001900002C0880F991F6A95E2F78095822384BB7D
:1001A0000895413029F524B381E090E002C0880F22
:1001B000991F6A95E2F7282B24BB0895442361F424
:1001C00021B381E090E002C0880F991F6A95E2F7A1
:1001D0008095822381BB0895413051F421B381E0A1
:1001E00090E002C0880F991F6A95E2F7282B21BB87
:1001F0000895843008F07BC0683008F078C0813002
:1002000029F1813038F0823009F43CC0833009F0A4
:100210006EC053C0442361F42BB381E090E002C070
:10022000880F991F6A95E2F7809582238BBB08950A
:10023000413009F05CC02BB381E090E002C0880F30
:10024000991F6A95E2F7282B2BBB0895442361F48C
:1002500028B381E090E002C0880F991F6A95E2F709
:100260008095822388BB0895413009F040C028B3AF
:1002700081E090E002C0880F991F6A95E2F7282B71
:1002800028BB0895442361F425B381E090E002C0C7
:10029000880F991F6A95E2F78095822385BB0895A0
:1002A000413029F525B381E090E002C0880F991F05
:1002B0006A95E2F7282B25BB0895442361F422B305
:1002C00081E090E002C0880F991F6A95E2F780955F
:1002D000822382BB0895413051F422B381E090E043
:1002E00002C0880F991F6A95E2F7282B22BB089558
:1002F0008430B0F56830A0F5813091F0813028F07D
:100300008230C9F0833061F521C02BB381E090E0E9
:1003100002C0880F991F6A95E2F728272BBB089522
:1003200028B381E090E002C0880F991F6A95E2F738
:10033000282728BB089525B381E090E002C0880FEC
:10034000991F6A95E2F7282725BB089522B381E01B
:1003500090E002C0880F991F6A95E2F7282722BB18
:1003600008958430D0F46830C0F4813049F0813091
:1003700028F0823039F0833081F406C089B305C09B
:1003800086B303C083B301C080B390E002C09595EB
:1003900087956A95E2F78170089580E00895982F17
:1003A0008430A0F4862F81508E3F80F0913049F048
:1003B000913028F0923039F0933041F406C06ABB96
:1003C000089567BB089564BB089561BB08958430A8
:1003D00080F4813049F0813028F0823039F0833068
:1003E00041F406C06BBB089568BB089565BB0895D2
:1003F00062BB0895843080F4813049F0813028F068
:10040000823039F0833041F406C089B3089586B351
:10041000089583B3089580B3089580936100843074
:1004200009F475C0853050F48130C1F18130C8F0D5
:100430008230C1F1833009F007C14CC0873009F424
:100440009AC0883038F4853009F474C0863009F0D9
:10045000FBC088C0883009F4B0C0893009F0F4C00E
:10046000D0C080E061E041E00E94F90080E062E0FD
:1004700041E00E94F90080E063E041E00E94F90061
:1004800080E064E041E00E94F90080E065E041E046
:100490000E94F90080E066E041E089C080E061E010
:1004A00040E06CC080E061E041E00E94F90080E043
:1004B00062E041E00E94F90080E063E040E00E94D9
:1004C000F90080E064E041E00E94F90080E065E02E
:1004D00041E017C080E061E041E00E94F90080E067
:1004E00062E041E00E94F90080E063E041E00E94A8
:1004F000F90080E064E041E00E94F90080E065E0FE
:1005000040E00E94F90080E066E040E072C080E0D8
:1005100061E040E00E94F90080E062E041E00E947A
:10052000F90080E063E041E00E94F90080E064E0CF
:1005300040E012C080E061E041E00E94F90080E00C
:1005400062E040E00E94F90080E063E041E00E9448
:10055000F90080E064E041E00E94F90080E065E09D
:1005600040E042C080E061E040E00E94F90080E0AD
:1005700062E040E02AC080E061E041E00E94F900D2
:1005800080E062E041E00E94F90080E063E041E049
:100590000E94F90080E064E040E00E94F90080E001
:1005A00065E040E00E94F90080E066E040E00E94E3
:1005B000F90080E067E040E021C080E061E041E0D8
:1005C0000E94F90080E062E041E00E94F90080E0D2
:1005D00063E041E00E94F90080E064E041E00E94B5
:1005E000F90080E065E041E00E94F90080E066E00B
:1005F00041E00E94F90080E067E041E00E94F900DC
:10060000089580E061E041E00E94F90080E062E04E
:1006100041E00E94F90080E063E041E00E94F900BF
:1006200080E064E040E00E94F90080E065E040E0A6
:100630000E94F90080E066E041E00E94F90080E05D
:1006400067E041E00E94F90008951092610080E0A7
:100650000E940D0208958091610081508093610095
:100660000E940D020895809161008F5F8093610068
:100670000E940D02089580E061E041E00E947A004E
:1006800080E062E041E00E947A0080E063E041E0C7
:100690000E947A0080E064E041E00E947A0080E0FD
:1006A00065E041E00E947A0080E066E041E00E945F
:1006B0007A0080E067E041E00E947A0082E066E034
:1006C00041E00E947A0082E066E041E00E94F90089
:0A06D0000E9425030895F894FFCF5F
:00000001FF
