:100000000C942A000C9434000C9434000C943400AA
:100010000C9434000C9434000C9434000C94340090
:100020000C9434000C9434000C9434000C94340080
:100030000C9434000C9434000C9434000C94340070
:100040000C9434000C9434000C9434000C94340060
:100050000C94340011241FBECFE5D8E0DEBFCDBF25
:100060000E9436000C944F000C9400008FE081BD7C
:100070008E9A969A80E197E229E130E0F901319772
:10008000F1F70197D9F79698FFCF8FE081BD0895DA
:1000900088E181BD81E08A95F1F711BC0895F8945B
:0200A000FFCF90
:00000001FF
