:100000000C942A000C943C000C943C000C943C0092
:100010000C943C000C943C000C943C000C943C0070
:100020000C943C000C943C000C943C000C94470055
:100030000C943C000C943C000C943C000C943C0050
:100040000C943C000C943C000C943C000C943C0040
:100050000C943C0011241FBECFE5D8E0DEBFCDBF1D
:1000600010E0A0E6B0E001C01D92A236B107E1F7B2
:100070000E943E000C94AF060C940000DF93CF93D7
:10008000CDB7DEB70E947C000E948204FFCF1F9292
:100090000F920FB60F9211242F933F934F935F93BC
:1000A0006F937F938F939F93AF93BF93EF93FF9340
:1000B000DF93CF93CDB7DEB7809160008F5F8093E1
:1000C000600080916000843F21F4109260000E94E3
:1000D0008206CF91DF91FF91EF91BF91AF919F91F8
:1000E0008F917F916F915F914F913F912F910F90E1
:1000F0000FBE0F901F901895DF93CF93CDB7DEB74B
:10010000AFE5B0E0EFE5F0E0808180688C93E3E557
:10011000F0E084E88083E2E5F0E01082A9E5B0E059
:10012000E9E5F0E0808181608C93CF91DF910895C3
:10013000DF93CF9300D000D00F92CDB7DEB7898385
:100140006A834B838981843008F0E4C08A818830D7
:1001500008F0E0C08981282F30E03D832C838C811A
:100160009D818130910509F447C02C813D81223069
:1001700031052CF48C819D81009771F0CBC02C81CE
:100180003D812230310509F467C08C819D81833027
:10019000910509F491C0BEC08B818823A9F4AAE31C
:1001A000B0E0EAE3F0E08081482F8A81282F30E038
:1001B00081E090E0022E02C0880F991F0A94E2F7B6
:1001C000809584238C93A6C08B81813009F0A2C0D6
:1001D000AAE3B0E0EAE3F0E08081482F8A81282F8B
:1001E00030E081E090E0022E02C0880F991F0A944F
:1001F000E2F7842B8C938EC08B818823A9F4A7E32C
:10020000B0E0E7E3F0E08081482F8A81282F30E0DA
:1002100081E090E0022E02C0880F991F0A94E2F755
:10022000809584238C9376C08B81813009F072C0D5
:10023000A7E3B0E0E7E3F0E08081482F8A81282F30
:1002400030E081E090E0022E02C0880F991F0A94EE
:10025000E2F7842B8C935EC08B818823A9F4A4E3FE
:10026000B0E0E4E3F0E08081482F8A81282F30E07D
:1002700081E090E0022E02C0880F991F0A94E2F7F5
:10028000809584238C9346C08B81813009F042C0D5
:10029000A4E3B0E0E4E3F0E08081482F8A81282FD6
:1002A00030E081E090E0022E02C0880F991F0A948E
:1002B000E2F7842B8C932EC08B818823A9F4A1E3D1
:1002C000B0E0E1E3F0E08081482F8A81282F30E020
:1002D00081E090E0022E02C0880F991F0A94E2F795
:1002E000809584238C9316C08B81813099F4A1E38F
:1002F000B0E0E1E3F0E08081482F8A81282F30E0F0
:1003000081E090E0022E02C0880F991F0A94E2F764
:10031000842B8C930F900F900F900F900F90CF9194
:10032000DF910895DF93CF9300D000D00F92CDB727
:10033000DEB789836A834B838981843008F0E4C007
:100340008A81883008F0E0C08981282F30E03D8321
:100350002C838C819D818130910509F447C02C81CB
:100360003D81223031052CF48C819D81009771F004
:10037000CBC02C813D812230310509F467C08C81CE
:100380009D818330910509F491C0BEC08B81882383
:10039000A9F4ABE3B0E0EBE3F0E08081482F8A8181
:1003A000282F30E081E090E0022E02C0880F991FD4
:1003B0000A94E2F7809584238C93A6C08B818130C8
:1003C00009F0A2C0ABE3B0E0EBE3F0E08081482F9E
:1003D0008A81282F30E081E090E0022E02C0880F51
:1003E000991F0A94E2F7842B8C938EC08B8188230B
:1003F000A9F4A8E3B0E0E8E3F0E08081482F8A8127
:10040000282F30E081E090E0022E02C0880F991F73
:100410000A94E2F7809584238C9376C08B81813097
:1004200009F072C0A8E3B0E0E8E3F0E08081482F73
:100430008A81282F30E081E090E0022E02C0880FF0
:10044000991F0A94E2F7842B8C935EC08B818823DA
:10045000A9F4A5E3B0E0E5E3F0E08081482F8A81CC
:10046000282F30E081E090E0022E02C0880F991F13
:100470000A94E2F7809584238C9346C08B81813067
:1004800009F042C0A5E3B0E0E5E3F0E08081482F49
:100490008A81282F30E081E090E0022E02C0880F90
:1004A000991F0A94E2F7842B8C932EC08B818823AA
:1004B000A9F4A2E3B0E0E2E3F0E08081482F8A8172
:1004C000282F30E081E090E0022E02C0880F991FB3
:1004D0000A94E2F7809584238C9316C08B81813037
:1004E00099F4A2E3B0E0E2E3F0E08081482F8A8152
:1004F000282F30E081E090E0022E02C0880F991F83
:100500000A94E2F7842B8C930F900F900F900F902A
:100510000F90CF91DF910895DF93CF9300D000D05B
:10052000CDB7DEB789836A838981843008F072C0D1
:100530008A81883008F06EC08981282F30E03C83A2
:100540002B838B819C818130910549F12B813C81EA
:10055000223031052CF48B819C81009761F05AC0C8
:100560002B813C812230310571F18B819C8183305C
:100570009105E9F14FC0ABE3B0E0EBE3F0E080813F
:10058000482F8A81282F30E081E090E0022E02C0BF
:10059000880F991F0A94E2F784278C933BC0A8E345
:1005A000B0E0E8E3F0E08081482F8A81282F30E036
:1005B00081E090E0022E02C0880F991F0A94E2F7B2
:1005C00084278C9327C0A5E3B0E0E5E3F0E08081C9
:1005D000482F8A81282F30E081E090E0022E02C06F
:1005E000880F991F0A94E2F784278C9313C0A2E323
:1005F000B0E0E2E3F0E08081482F8A81282F30E0EC
:1006000081E090E0022E02C0880F991F0A94E2F761
:1006100084278C930F900F900F900F90CF91DF91C4
:100620000895DF93CF9300D000D000D0CDB7DEB7D0
:100630008A836B8319828A81843018F48B81883095
:1006400018F029812E8382C08A81482F50E05D8373
:100650004C838C819D818130910579F12C813D8184
:100660002230310534F44C815D814115510569F02A
:100670006BC08C819D8182309105B9F12C813D81C7
:100680002330310509F449C05FC0E9E3F0E080811F
:10069000282F30E08B81882F90E0A90102C055956A
:1006A00047958A95E2F7CA0181709070882319F006
:1006B00081E0898349C0198247C0E6E3F0E0808188
:1006C000282F30E08B81882F90E0A90102C055953A
:1006D00047958A95E2F7CA0181709070882319F0D6
:1006E00081E0898331C019822FC0E3E3F0E080818B
:1006F000282F30E08B81882F90E0A90102C055950A
:1007000047958A95E2F7CA0181709070882319F0A5
:1007100081E0898319C0198217C0E0E3F0E080818D
:10072000282F30E08B81882F90E0A90102C05595D9
:1007300047958A95E2F7CA0181709070882319F075
:1007400081E0898301C0198259815E838E8126965A
:100750000FB6F894DEBF0FBECDBFCF91DF910895E5
:10076000DF93CF9300D000D0CDB7DEB789836A8303
:1007700089818430C0F58A81882319F08A818F3F6E
:1007800091F58981282F30E03C832B838B819C81DC
:1007900081309105D1F02B813C81223031052CF440
:1007A0008B819C81009761F01EC02B813C8122309F
:1007B000310581F08B819C818330910581F013C0DC
:1007C000EAE3F0E08A8180830EC0E7E3F0E08A810B
:1007D000808309C0E4E3F0E08A81808304C0E1E320
:1007E000F0E08A8180830F900F900F900F90CF914F
:1007F000DF910895DF93CF9300D000D0CDB7DEB75F
:1008000089836A838981843090F58981282F30E03B
:100810003C832B838B819C8181309105D1F02B818E
:100820003C81223031052CF48B819C81009761F052
:100830001EC02B813C812230310581F08B819C814F
:100840008330910581F013C0EBE3F0E08A8180836F
:100850000EC0E8E3F0E08A81808309C0E5E3F0E0C0
:100860008A81808304C0E2E3F0E08A8180830F9074
:100870000F900F900F90CF91DF910895DF93CF935A
:1008800000D000D0CDB7DEB78A838A81843090F55E
:100890008A81282F30E03C832B838B819C8181309F
:1008A0009105D1F02B813C81223031052CF48B81D4
:1008B0009C81009761F01EC02B813C812230310564
:1008C00081F08B819C818330910581F013C0E9E335
:1008D000F0E0808189830EC0E6E3F0E080818983C7
:1008E00009C0E3E3F0E08081898304C0E0E3F0E045
:1008F0008081898389810F900F900F900F90CF9105
:10090000DF910895DF93CF93CDB7DEB780E061E04C
:1009100041E00E94980080E062E041E00E9498007F
:1009200080E063E041E00E94980080E064E041E004
:100930000E94980080E065E041E00E94980080E01D
:1009400066E041E00E94980080E067E041E00E949C
:10095000980082E066E041E00E94980082E066E054
:1009600041E00E9492010E94A206CF91DF9108957A
:10097000DF93CF9300D00F92CDB7DEB78983898103
:100980008093610080916100282F30E03B832A83AF
:100990008A819B818430910509F4D7C02A813B81EB
:1009A00025303105ECF48A819B818130910509F471
:1009B00060C02A813B81223031052CF48A819B81E1
:1009C000009799F199C12A813B812230310509F4C0
:1009D00074C08A819B818330910509F492C08CC1D7
:1009E0002A813B812730310509F41BC18A819B8113
:1009F000883091056CF42A813B812530310509F45A
:100A0000C8C08A819B818630910509F4E6C074C113
:100A10002A813B812830310509F427C18A819B81D5
:100A20008930910509F445C167C180E061E041E08A
:100A30000E94920180E062E041E00E94920180E029
:100A400063E041E00E94920180E064E041E00E94A6
:100A5000920180E065E041E00E94920180E066E062
:100A600041E00E94920180E067E040E00E94920134
:100A700043C180E061E040E00E94920180E062E0DA
:100A800041E00E94920180E063E041E00E94920117
:100A900080E064E040E00E94920180E065E040E098
:100AA0000E94920180E066E040E00E94920180E0B6
:100AB00067E040E00E9492011FC180E061E041E0F8
:100AC0000E94920180E062E041E00E94920180E099
:100AD00063E040E00E94920180E064E041E00E9417
:100AE000920180E065E041E00E94920180E066E0D2
:100AF00040E00E94920180E067E041E00E949201A4
:100B0000FBC080E061E041E00E94920180E062E091
:100B100041E00E94920180E063E041E00E94920186
:100B200080E064E041E00E94920180E065E040E006
:100B30000E94920180E066E040E00E94920180E025
:100B400067E041E00E949201D7C080E061E040E0B0
:100B50000E94920180E062E041E00E94920180E008
:100B600063E041E00E94920180E064E040E00E9486
:100B7000920180E065E040E00E94920180E066E042
:100B800041E00E94920180E067E041E00E94920112
:100B9000B3C080E061E041E00E94920180E062E049
:100BA00040E00E94920180E063E041E00E949201F7
:100BB00080E064E041E00E94920180E065E040E076
:100BC0000E94920180E066E041E00E94920180E094
:100BD00067E041E00E9492018FC080E061E040E068
:100BE0000E94920180E062E040E00E94920180E079
:100BF00063E041E00E94920180E064E041E00E94F5
:100C0000920180E065E041E00E94920180E066E0B0
:100C100041E00E94920180E067E041E00E94920181
:100C20006BC080E061E041E00E94920180E062E000
:100C300041E00E94920180E063E041E00E94920165
:100C400080E064E040E00E94920180E065E040E0E6
:100C50000E94920180E066E040E00E94920180E004
:100C600067E040E00E94920147C080E061E041E01F
:100C70000E94920180E062E041E00E94920180E0E7
:100C800063E041E00E94920180E064E041E00E9464
:100C9000920180E065E041E00E94920180E066E020
:100CA00041E00E94920180E067E041E00E949201F1
:100CB00023C080E061E041E00E94920180E062E0B8
:100CC00041E00E94920180E063E041E00E949201D5
:100CD00080E064E040E00E94920180E065E040E056
:100CE0000E94920180E066E041E00E94920180E073
:100CF00067E041E00E9492010F900F900F90CF911A
:100D0000DF910895DF93CF93CDB7DEB78091610077
:100D10008F5F80936100809161000E94B804CF9141
:100D2000DF910895DF93CF93CDB7DEB78091610057
:100D3000815080936100809161000E94B804CF913E
:100D4000DF910895DF93CF93CDB7DEB710926100A6
:100D5000809161000E94B804CF91DF910895F894CA
:020D6000FFCFC3
:00000001FF
