:100000000C942A000C943C000C943C000C9452007C
:100010000C943C000C943C000C943C000C943C0070
:100020000C943C000C943C000C943C000C943C0060
:100030000C943C000C943C000C943C000C943C0050
:100040000C943C000C943C000C943C000C943C0040
:100050000C943C0011241FBECFE5D8E0DEBFCDBF1D
:1000600010E0A0E6B0E001C01D92A136B107E1F7B3
:100070000E9449000C9472000C940000BA988FB74B
:1000800080688FBF8BB780628BBF84B7806484BF6A
:10009000089584B38F6084BB85B38F7085BB0E9445
:1000A0003E00FFCF1F920F920FB60F9211242F9395
:1000B0008F939F9395B320916000822F8F70907FD4
:1000C000892B85BB293019F41092600003C02F5F83
:1000D000209360009F918F912F910F900FBE0F90F2
:0800E0001F901895F894FFCF62
:00000001FF
