:100000000C942A000C9434000C9434000C943400AA
:100010000C9434000C9434000C9434000C94340090
:100020000C9434000C9434000C9434000C94340080
:100030000C9434000C9434000C9434000C94340070
:100040000C9434000C9434000C9434000C94340060
:100050000C94340011241FBECFE5D8E0DEBFCDBF25
:100060000E9436000C945D000C940000A09AA19AA6
:10007000A29AA898A998AA9820E931E0A89AA998E4
:10008000AA9888E893E1F9013197F1F70197D9F738
:10009000A898A99AAA9888E893E1F9013197F1F70D
:1000A0000197D9F7A898A998AA9A88E893E1F90145
:0E00B0003197F1F70197D9F7E1CFF894FFCF20
:00000001FF
