:100000000C942A000C943C000C943C000C943C0092
:100010000C943C000C943C000C943C000C943C0070
:100020000C943C000C943C000C944F000C943C004D
:100030000C943C000C943C000C943C000C943C0050
:100040000C943C000C943C000C943C000C943C0040
:100050000C943C0011241FBECFE5D8E0DEBFCDBF1D
:1000600010E0A0E6B0E001C01D92A136B107E1F7B3
:100070000E944A000C946A000C9400008FB78068BC
:100080008FBF8DE883BF89B7826089BF12BE8AEFB8
:100090008CBF08950E943E00A09AA898FFCF1F929F
:1000A0000F920FB60F9211248F939F93809160004F
:1000B0008F5F80936000803231F485B391E08927AF
:1000C00085BB109260009F918F910F900FBE0F9093
:0800D0001F901895F894FFCF72
:00000001FF
