:100000000C942A000C9434000C9434000C943400AA
:100010000C9434000C9434000C9434000C94340090
:100020000C9434000C9434000C9434000C94340080
:100030000C9434000C9434000C9434000C94340070
:100040000C9434000C9434000C9434000C94340060
:100050000C94340011241FBECFE5D8E0DEBFCDBF25
:100060000E944F000C94B2000C9400009AE693BFDB
:1000700012BE8CBF0895813049F0813018F0823073
:1000800069F409C085B38C7F826003C085B38C7F1F
:10009000816085BB089585B38C7F85BB0895EF9201
:1000A000FF920F931F93CF93DF93BB9A8AB3887FFE
:1000B0008ABB84B3836084BB1AE690E4E92EC9E16D
:1000C000D0E080E8F82E0FEFC89B22C080E00E94AD
:1000D0003B0013BF12BEECBE80E29EE4FE013197EE
:1000E000F1F70197D9F713BF12BEFCBE80E29EE480
:1000F000FE013197F1F70197D9F713BF12BE0CBF7C
:1001000080E29EE4FE013197F1F70197D9F7DCCF49
:10011000C99B22C081E00E943B0013BF12BEECBE0F
:1001200080E29EE4FE013197F1F70197D9F713BF02
:1001300012BEFCBE80E29EE4FE013197F1F701970A
:10014000D9F713BF12BE0CBF80E29EE4FE013197C7
:10015000F1F70197D9F7B8CFCA9BB6CF82E00E94DA
:080160003B00B2CFF894FFCF81
:00000001FF
